{
  "address": "0x9A676e781A523b5d0C0e43731313A708CB607508",
  "abi": [
    {
      "inputs": [
        {
          "internalType": "address",
          "name": "_owner",
          "type": "address"
        }
      ],
      "stateMutability": "nonpayable",
      "type": "constructor"
    },
    {
      "inputs": [],
      "name": "MOON",
      "outputs": [
        {
          "internalType": "address",
          "name": "",
          "type": "address"
        }
      ],
      "stateMutability": "view",
      "type": "function"
    },
    {
      "inputs": [],
      "name": "MOONCirculatingSupply",
      "outputs": [
        {
          "internalType": "uint256",
          "name": "",
          "type": "uint256"
        }
      ],
      "stateMutability": "view",
      "type": "function"
    },
    {
      "inputs": [],
      "name": "getNonCirculatingMOON",
      "outputs": [
        {
          "internalType": "uint256",
          "name": "",
          "type": "uint256"
        }
      ],
      "stateMutability": "view",
      "type": "function"
    },
    {
      "inputs": [
        {
          "internalType": "address",
          "name": "_moon",
          "type": "address"
        }
      ],
      "name": "initialize",
      "outputs": [
        {
          "internalType": "bool",
          "name": "",
          "type": "bool"
        }
      ],
      "stateMutability": "nonpayable",
      "type": "function"
    },
    {
      "inputs": [],
      "name": "isInitialized",
      "outputs": [
        {
          "internalType": "bool",
          "name": "",
          "type": "bool"
        }
      ],
      "stateMutability": "view",
      "type": "function"
    },
    {
      "inputs": [
        {
          "internalType": "uint256",
          "name": "",
          "type": "uint256"
        }
      ],
      "name": "nonCirculatingMOONAddresses",
      "outputs": [
        {
          "internalType": "address",
          "name": "",
          "type": "address"
        }
      ],
      "stateMutability": "view",
      "type": "function"
    },
    {
      "inputs": [],
      "name": "owner",
      "outputs": [
        {
          "internalType": "address",
          "name": "",
          "type": "address"
        }
      ],
      "stateMutability": "view",
      "type": "function"
    },
    {
      "inputs": [
        {
          "internalType": "address[]",
          "name": "_nonCirculatingAddresses",
          "type": "address[]"
        }
      ],
      "name": "setNonCirculatingMOONAddresses",
      "outputs": [
        {
          "internalType": "bool",
          "name": "",
          "type": "bool"
        }
      ],
      "stateMutability": "nonpayable",
      "type": "function"
    },
    {
      "inputs": [
        {
          "internalType": "address",
          "name": "_owner",
          "type": "address"
        }
      ],
      "name": "transferOwnership",
      "outputs": [
        {
          "internalType": "bool",
          "name": "",
          "type": "bool"
        }
      ],
      "stateMutability": "nonpayable",
      "type": "function"
    }
  ],
  "transactionHash": "0xa455d8cbd920bc31828a3c066384dbb3bc65eeb1400d786098bfae2b94bb34d8",
  "args": [
    "0xf39Fd6e51aad88F6F4ce6aB8827279cffFb92266"
  ],
  "numDeployments": 1,
  "solcInputHash": "8a62254e4f829950966e04c14405e190",
  "bytecode": "0x608060405234801561001057600080fd5b506040516109693803806109698339818101604052602081101561003357600080fd5b5051600180546001600160a01b0319166001600160a01b03909216919091179055610906806100636000396000f3fe608060405234801561001057600080fd5b50600436106100a35760003560e01c80638da5cb5b11610076578063cb5398bf1161005b578063cb5398bf146101ba578063ef96d9ab146101d7578063f2fde38b146101df576100a3565b80638da5cb5b14610156578063c4d66de814610187576100a3565b80631984617f146100a8578063299a200f146100c25780632fd198a6146100ca578063392e53cd1461014e575b600080fd5b6100b0610212565b60408051918252519081900360200190f35b6100b0610319565b61013a600480360360208110156100e057600080fd5b8101906020810181356401000000008111156100fb57600080fd5b82018360208201111561010d57600080fd5b8035906020019184602083028401116401000000008311171561012f57600080fd5b5090925090506103cd565b604080519115158252519081900360200190f35b61013a61046c565b61015e610475565b6040805173ffffffffffffffffffffffffffffffffffffffff9092168252519081900360200190f35b61013a6004803603602081101561019d57600080fd5b503573ffffffffffffffffffffffffffffffffffffffff16610491565b61015e600480360360208110156101d057600080fd5b50356105a1565b61015e6105d8565b61013a600480360360208110156101f557600080fd5b503573ffffffffffffffffffffffffffffffffffffffff166105f9565b60008060005b60025481101561031357600054600280546102ff92610100900473ffffffffffffffffffffffffffffffffffffffff16916370a08231918590811061025957fe5b60009182526020918290200154604080517fffffffff0000000000000000000000000000000000000000000000000000000060e086901b16815273ffffffffffffffffffffffffffffffffffffffff90921660048301525160248083019392829003018186803b1580156102cc57600080fd5b505afa1580156102e0573d6000803e3d6000fd5b505050506040513d60208110156102f657600080fd5b505183906106ca565b915061030c8160016106ca565b9050610218565b50905090565b600080600060019054906101000a900473ffffffffffffffffffffffffffffffffffffffff1673ffffffffffffffffffffffffffffffffffffffff166318160ddd6040518163ffffffff1660e01b815260040160206040518083038186803b15801561038457600080fd5b505afa158015610398573d6000803e3d6000fd5b505050506040513d60208110156103ae57600080fd5b5051905060006103c66103bf610212565b8390610745565b9250505090565b60015460009073ffffffffffffffffffffffffffffffffffffffff16331461045657604080517f08c379a000000000000000000000000000000000000000000000000000000000815260206004820152601360248201527f53656e646572206973206e6f74206f776e657200000000000000000000000000604482015290519081900360640190fd5b61046260028484610833565b5060019392505050565b60005460ff1681565b60015473ffffffffffffffffffffffffffffffffffffffff1681565b60015460009073ffffffffffffffffffffffffffffffffffffffff16331461051a57604080517f08c379a000000000000000000000000000000000000000000000000000000000815260206004820152601360248201527f63616c6c6572206973206e6f74206f776e657200000000000000000000000000604482015290519081900360640190fd5b60005460ff161561052a57600080fd5b50600080547fffffffffffffffffffffffffffffffffffffffffffffffffffffffffffffff0073ffffffffffffffffffffffffffffffffffffffff8416610100027fffffffffffffffffffffff0000000000000000000000000000000000000000ff90921691909117166001908117909155919050565b600281815481106105b157600080fd5b60009182526020909120015473ffffffffffffffffffffffffffffffffffffffff16905081565b600054610100900473ffffffffffffffffffffffffffffffffffffffff1681565b60015460009073ffffffffffffffffffffffffffffffffffffffff16331461068257604080517f08c379a000000000000000000000000000000000000000000000000000000000815260206004820152601360248201527f53656e646572206973206e6f74206f776e657200000000000000000000000000604482015290519081900360640190fd5b506001805473ffffffffffffffffffffffffffffffffffffffff83167fffffffffffffffffffffffff0000000000000000000000000000000000000000909116178155919050565b60008282018381101561073e57604080517f08c379a000000000000000000000000000000000000000000000000000000000815260206004820152601b60248201527f536166654d6174683a206164646974696f6e206f766572666c6f770000000000604482015290519081900360640190fd5b9392505050565b600061073e83836040518060400160405280601e81526020017f536166654d6174683a207375627472616374696f6e206f766572666c6f7700008152506000818484111561082b576040517f08c379a00000000000000000000000000000000000000000000000000000000081526004018080602001828103825283818151815260200191508051906020019080838360005b838110156107f05781810151838201526020016107d8565b50505050905090810190601f16801561081d5780820380516001836020036101000a031916815260200191505b509250505060405180910390fd5b505050900390565b8280548282559060005260206000209081019282156108ab579160200282015b828111156108ab5781547fffffffffffffffffffffffff00000000000000000000000000000000000000001673ffffffffffffffffffffffffffffffffffffffff843516178255602090920191600190910190610853565b506108b79291506108bb565b5090565b5b808211156108b757600081556001016108bc56fea2646970667358221220600883c405d411ff66bdf166c25d294a50e06a9d47926030e2992845f17cdcbd64736f6c63430007050033",
  "devdoc": {
    "kind": "dev",
    "methods": {},
    "version": 1
  },
  "userdoc": {
    "kind": "user",
    "methods": {},
    "version": 1
  },
  "storageLayout": {
    "storage": [
      {
        "astId": 456,
        "contract": "contracts/CirculatingSupply.sol:MOONCirculatingSupplyContract",
        "label": "isInitialized",
        "offset": 0,
        "slot": "0",
        "type": "t_bool"
      },
      {
        "astId": 458,
        "contract": "contracts/CirculatingSupply.sol:MOONCirculatingSupplyContract",
        "label": "MOON",
        "offset": 1,
        "slot": "0",
        "type": "t_address"
      },
      {
        "astId": 460,
        "contract": "contracts/CirculatingSupply.sol:MOONCirculatingSupplyContract",
        "label": "owner",
        "offset": 0,
        "slot": "1",
        "type": "t_address"
      },
      {
        "astId": 463,
        "contract": "contracts/CirculatingSupply.sol:MOONCirculatingSupplyContract",
        "label": "nonCirculatingMOONAddresses",
        "offset": 0,
        "slot": "2",
        "type": "t_array(t_address)dyn_storage"
      }
    ],
    "types": {
      "t_address": {
        "encoding": "inplace",
        "label": "address",
        "numberOfBytes": "20"
      },
      "t_array(t_address)dyn_storage": {
        "base": "t_address",
        "encoding": "dynamic_array",
        "label": "address[]",
        "numberOfBytes": "32"
      },
      "t_bool": {
        "encoding": "inplace",
        "label": "bool",
        "numberOfBytes": "1"
      }
    }
  }
}