{
  "address": "0xDc64a140Aa3E981100a9becA4E685f962f0cF6C9",
  "abi": [
    {
      "inputs": [],
      "stateMutability": "nonpayable",
      "type": "constructor"
    },
    {
      "anonymous": false,
      "inputs": [
        {
          "indexed": true,
          "internalType": "address",
          "name": "owner",
          "type": "address"
        },
        {
          "indexed": true,
          "internalType": "address",
          "name": "spender",
          "type": "address"
        },
        {
          "indexed": false,
          "internalType": "uint256",
          "name": "value",
          "type": "uint256"
        }
      ],
      "name": "Approval",
      "type": "event"
    },
    {
      "anonymous": false,
      "inputs": [
        {
          "indexed": true,
          "internalType": "uint256",
          "name": "epoch",
          "type": "uint256"
        },
        {
          "indexed": false,
          "internalType": "uint256",
          "name": "rebase",
          "type": "uint256"
        },
        {
          "indexed": false,
          "internalType": "uint256",
          "name": "index",
          "type": "uint256"
        }
      ],
      "name": "LogRebase",
      "type": "event"
    },
    {
      "anonymous": false,
      "inputs": [
        {
          "indexed": false,
          "internalType": "address",
          "name": "stakingContract",
          "type": "address"
        }
      ],
      "name": "LogStakingContractUpdated",
      "type": "event"
    },
    {
      "anonymous": false,
      "inputs": [
        {
          "indexed": true,
          "internalType": "uint256",
          "name": "epoch",
          "type": "uint256"
        },
        {
          "indexed": false,
          "internalType": "uint256",
          "name": "timestamp",
          "type": "uint256"
        },
        {
          "indexed": false,
          "internalType": "uint256",
          "name": "totalSupply",
          "type": "uint256"
        }
      ],
      "name": "LogSupply",
      "type": "event"
    },
    {
      "anonymous": false,
      "inputs": [
        {
          "indexed": true,
          "internalType": "address",
          "name": "previousOwner",
          "type": "address"
        },
        {
          "indexed": true,
          "internalType": "address",
          "name": "newOwner",
          "type": "address"
        }
      ],
      "name": "OwnershipPulled",
      "type": "event"
    },
    {
      "anonymous": false,
      "inputs": [
        {
          "indexed": true,
          "internalType": "address",
          "name": "previousOwner",
          "type": "address"
        },
        {
          "indexed": true,
          "internalType": "address",
          "name": "newOwner",
          "type": "address"
        }
      ],
      "name": "OwnershipPushed",
      "type": "event"
    },
    {
      "anonymous": false,
      "inputs": [
        {
          "indexed": true,
          "internalType": "address",
          "name": "from",
          "type": "address"
        },
        {
          "indexed": true,
          "internalType": "address",
          "name": "to",
          "type": "address"
        },
        {
          "indexed": false,
          "internalType": "uint256",
          "name": "value",
          "type": "uint256"
        }
      ],
      "name": "Transfer",
      "type": "event"
    },
    {
      "inputs": [],
      "name": "DOMAIN_SEPARATOR",
      "outputs": [
        {
          "internalType": "bytes32",
          "name": "",
          "type": "bytes32"
        }
      ],
      "stateMutability": "view",
      "type": "function"
    },
    {
      "inputs": [],
      "name": "INDEX",
      "outputs": [
        {
          "internalType": "uint256",
          "name": "",
          "type": "uint256"
        }
      ],
      "stateMutability": "view",
      "type": "function"
    },
    {
      "inputs": [],
      "name": "PERMIT_TYPEHASH",
      "outputs": [
        {
          "internalType": "bytes32",
          "name": "",
          "type": "bytes32"
        }
      ],
      "stateMutability": "view",
      "type": "function"
    },
    {
      "inputs": [
        {
          "internalType": "address",
          "name": "owner_",
          "type": "address"
        },
        {
          "internalType": "address",
          "name": "spender",
          "type": "address"
        }
      ],
      "name": "allowance",
      "outputs": [
        {
          "internalType": "uint256",
          "name": "",
          "type": "uint256"
        }
      ],
      "stateMutability": "view",
      "type": "function"
    },
    {
      "inputs": [
        {
          "internalType": "address",
          "name": "spender",
          "type": "address"
        },
        {
          "internalType": "uint256",
          "name": "value",
          "type": "uint256"
        }
      ],
      "name": "approve",
      "outputs": [
        {
          "internalType": "bool",
          "name": "",
          "type": "bool"
        }
      ],
      "stateMutability": "nonpayable",
      "type": "function"
    },
    {
      "inputs": [
        {
          "internalType": "uint256",
          "name": "gons",
          "type": "uint256"
        }
      ],
      "name": "balanceForGons",
      "outputs": [
        {
          "internalType": "uint256",
          "name": "",
          "type": "uint256"
        }
      ],
      "stateMutability": "view",
      "type": "function"
    },
    {
      "inputs": [
        {
          "internalType": "address",
          "name": "who",
          "type": "address"
        }
      ],
      "name": "balanceOf",
      "outputs": [
        {
          "internalType": "uint256",
          "name": "",
          "type": "uint256"
        }
      ],
      "stateMutability": "view",
      "type": "function"
    },
    {
      "inputs": [],
      "name": "circulatingSupply",
      "outputs": [
        {
          "internalType": "uint256",
          "name": "",
          "type": "uint256"
        }
      ],
      "stateMutability": "view",
      "type": "function"
    },
    {
      "inputs": [],
      "name": "decimals",
      "outputs": [
        {
          "internalType": "uint8",
          "name": "",
          "type": "uint8"
        }
      ],
      "stateMutability": "view",
      "type": "function"
    },
    {
      "inputs": [
        {
          "internalType": "address",
          "name": "spender",
          "type": "address"
        },
        {
          "internalType": "uint256",
          "name": "subtractedValue",
          "type": "uint256"
        }
      ],
      "name": "decreaseAllowance",
      "outputs": [
        {
          "internalType": "bool",
          "name": "",
          "type": "bool"
        }
      ],
      "stateMutability": "nonpayable",
      "type": "function"
    },
    {
      "inputs": [
        {
          "internalType": "uint256",
          "name": "amount",
          "type": "uint256"
        }
      ],
      "name": "gonsForBalance",
      "outputs": [
        {
          "internalType": "uint256",
          "name": "",
          "type": "uint256"
        }
      ],
      "stateMutability": "view",
      "type": "function"
    },
    {
      "inputs": [
        {
          "internalType": "address",
          "name": "spender",
          "type": "address"
        },
        {
          "internalType": "uint256",
          "name": "addedValue",
          "type": "uint256"
        }
      ],
      "name": "increaseAllowance",
      "outputs": [
        {
          "internalType": "bool",
          "name": "",
          "type": "bool"
        }
      ],
      "stateMutability": "nonpayable",
      "type": "function"
    },
    {
      "inputs": [],
      "name": "index",
      "outputs": [
        {
          "internalType": "uint256",
          "name": "",
          "type": "uint256"
        }
      ],
      "stateMutability": "view",
      "type": "function"
    },
    {
      "inputs": [
        {
          "internalType": "address",
          "name": "stakingContract_",
          "type": "address"
        }
      ],
      "name": "initialize",
      "outputs": [
        {
          "internalType": "bool",
          "name": "",
          "type": "bool"
        }
      ],
      "stateMutability": "nonpayable",
      "type": "function"
    },
    {
      "inputs": [],
      "name": "initializer",
      "outputs": [
        {
          "internalType": "address",
          "name": "",
          "type": "address"
        }
      ],
      "stateMutability": "view",
      "type": "function"
    },
    {
      "inputs": [],
      "name": "manager",
      "outputs": [
        {
          "internalType": "address",
          "name": "",
          "type": "address"
        }
      ],
      "stateMutability": "view",
      "type": "function"
    },
    {
      "inputs": [],
      "name": "name",
      "outputs": [
        {
          "internalType": "string",
          "name": "",
          "type": "string"
        }
      ],
      "stateMutability": "view",
      "type": "function"
    },
    {
      "inputs": [
        {
          "internalType": "address",
          "name": "owner",
          "type": "address"
        }
      ],
      "name": "nonces",
      "outputs": [
        {
          "internalType": "uint256",
          "name": "",
          "type": "uint256"
        }
      ],
      "stateMutability": "view",
      "type": "function"
    },
    {
      "inputs": [
        {
          "internalType": "address",
          "name": "owner",
          "type": "address"
        },
        {
          "internalType": "address",
          "name": "spender",
          "type": "address"
        },
        {
          "internalType": "uint256",
          "name": "amount",
          "type": "uint256"
        },
        {
          "internalType": "uint256",
          "name": "deadline",
          "type": "uint256"
        },
        {
          "internalType": "uint8",
          "name": "v",
          "type": "uint8"
        },
        {
          "internalType": "bytes32",
          "name": "r",
          "type": "bytes32"
        },
        {
          "internalType": "bytes32",
          "name": "s",
          "type": "bytes32"
        }
      ],
      "name": "permit",
      "outputs": [],
      "stateMutability": "nonpayable",
      "type": "function"
    },
    {
      "inputs": [],
      "name": "pullManagement",
      "outputs": [],
      "stateMutability": "nonpayable",
      "type": "function"
    },
    {
      "inputs": [
        {
          "internalType": "address",
          "name": "newOwner_",
          "type": "address"
        }
      ],
      "name": "pushManagement",
      "outputs": [],
      "stateMutability": "nonpayable",
      "type": "function"
    },
    {
      "inputs": [
        {
          "internalType": "uint256",
          "name": "profit_",
          "type": "uint256"
        },
        {
          "internalType": "uint256",
          "name": "epoch_",
          "type": "uint256"
        }
      ],
      "name": "rebase",
      "outputs": [
        {
          "internalType": "uint256",
          "name": "",
          "type": "uint256"
        }
      ],
      "stateMutability": "nonpayable",
      "type": "function"
    },
    {
      "inputs": [
        {
          "internalType": "uint256",
          "name": "",
          "type": "uint256"
        }
      ],
      "name": "rebases",
      "outputs": [
        {
          "internalType": "uint256",
          "name": "epoch",
          "type": "uint256"
        },
        {
          "internalType": "uint256",
          "name": "rebase",
          "type": "uint256"
        },
        {
          "internalType": "uint256",
          "name": "totalStakedBefore",
          "type": "uint256"
        },
        {
          "internalType": "uint256",
          "name": "totalStakedAfter",
          "type": "uint256"
        },
        {
          "internalType": "uint256",
          "name": "amountRebased",
          "type": "uint256"
        },
        {
          "internalType": "uint256",
          "name": "index",
          "type": "uint256"
        },
        {
          "internalType": "uint256",
          "name": "blockNumberOccured",
          "type": "uint256"
        }
      ],
      "stateMutability": "view",
      "type": "function"
    },
    {
      "inputs": [],
      "name": "renounceManagement",
      "outputs": [],
      "stateMutability": "nonpayable",
      "type": "function"
    },
    {
      "inputs": [
        {
          "internalType": "uint256",
          "name": "_INDEX",
          "type": "uint256"
        }
      ],
      "name": "setIndex",
      "outputs": [
        {
          "internalType": "bool",
          "name": "",
          "type": "bool"
        }
      ],
      "stateMutability": "nonpayable",
      "type": "function"
    },
    {
      "inputs": [],
      "name": "stakingContract",
      "outputs": [
        {
          "internalType": "address",
          "name": "",
          "type": "address"
        }
      ],
      "stateMutability": "view",
      "type": "function"
    },
    {
      "inputs": [],
      "name": "symbol",
      "outputs": [
        {
          "internalType": "string",
          "name": "",
          "type": "string"
        }
      ],
      "stateMutability": "view",
      "type": "function"
    },
    {
      "inputs": [],
      "name": "totalSupply",
      "outputs": [
        {
          "internalType": "uint256",
          "name": "",
          "type": "uint256"
        }
      ],
      "stateMutability": "view",
      "type": "function"
    },
    {
      "inputs": [
        {
          "internalType": "address",
          "name": "to",
          "type": "address"
        },
        {
          "internalType": "uint256",
          "name": "value",
          "type": "uint256"
        }
      ],
      "name": "transfer",
      "outputs": [
        {
          "internalType": "bool",
          "name": "",
          "type": "bool"
        }
      ],
      "stateMutability": "nonpayable",
      "type": "function"
    },
    {
      "inputs": [
        {
          "internalType": "address",
          "name": "from",
          "type": "address"
        },
        {
          "internalType": "address",
          "name": "to",
          "type": "address"
        },
        {
          "internalType": "uint256",
          "name": "value",
          "type": "uint256"
        }
      ],
      "name": "transferFrom",
      "outputs": [
        {
          "internalType": "bool",
          "name": "",
          "type": "bool"
        }
      ],
      "stateMutability": "nonpayable",
      "type": "function"
    }
  ],
  "transactionHash": "0x97b31490f91c296fbd73718d78aeb1d93c3508808a6e3b8e266ae4f281db9e36",
  "args": [],
  "numDeployments": 1,
  "solcInputHash": "61dabf4b925c3a4880483045afc07d0c",
  "bytecode": "0x60806040523480156200001157600080fd5b50604080518082018252600b81526a29ba30b5b2b21026b7b7b760a91b60208083019182528351808501909452600584526439a6a7a7a760d91b90840152815191929160099162000066916003919062000363565b5081516200007c90600490602085019062000363565b506005805460ff191660ff92909216919091179055504690507f8b73c3c69bb8fe3d512ecc4cf759cc79239f7b179b0ffacaa9a75d522b39400f620000c0620001d1565b805160209182012060408051808201825260018152603160f81b90840152805180840194909452838101919091527fc89efdaa54c0f20c7adf612882df0950f5a951637e0307cdcb4c672f298b8bc6606084015260808301939093523060a0808401919091528351808403909101815260c0909201928390528151910120600755600880546001600160a01b0319163317908190556001600160a01b0316906000907fea8258f2d9ddb679928cf34b78cf645b7feda9acc828e4dd82d014eaae270eba908290a3600b80546001600160a01b031916331790556611c37937e080006002819055620001c8908060001906600019036200026b60201b6200186f1790919060201c565b600e556200040f565b60038054604080516020601f6002600019610100600188161502019095169490940493840181900481028201810190925282815260609390929091830182828015620002615780601f10620002355761010080835404028352916020019162000261565b820191906000526020600020905b8154815290600101906020018083116200024357829003601f168201915b5050505050905090565b6000620002b583836040518060400160405280601a81526020017f536166654d6174683a206469766973696f6e206279207a65726f000000000000815250620002bc60201b60201c565b9392505050565b600081836200034c5760405162461bcd60e51b81526004018080602001828103825283818151815260200191508051906020019080838360005b8381101562000310578181015183820152602001620002f6565b50505050905090810190601f1680156200033e5780820380516001836020036101000a031916815260200191505b509250505060405180910390fd5b5060008385816200035957fe5b0495945050505050565b828054600181600116156101000203166002900490600052602060002090601f0160209004810192826200039b5760008555620003e6565b82601f10620003b657805160ff1916838001178555620003e6565b82800160010185558215620003e6579182015b82811115620003e6578251825591602001919060010190620003c9565b50620003f4929150620003f8565b5090565b5b80821115620003f45760008155600101620003f9565b611d94806200041f6000396000f3fe608060405234801561001057600080fd5b50600436106101da5760003560e01c8063481c6a751161010457806395d89b41116100a2578063c4d66de811610071578063c4d66de8146105b2578063d505accf146105e5578063dd62ed3e14610643578063ee99205c1461067e576101da565b806395d89b41146105305780639ce110d714610538578063a457c2d714610540578063a9059cbb14610579576101da565b806373c69eb7116100de57806373c69eb7146104835780637965d56d146104d85780637ecebe00146104f55780639358928b14610528576101da565b8063481c6a75146104175780635a96ac0a1461044857806370a0823114610450576101da565b80632986c0e51161017c5780633644e5151161014b5780633644e51514610386578063395093511461038e57806340a5737f146103c757806346f68ee9146103e4576101da565b80632986c0e5146103505780632df75cb11461035857806330adf81f14610360578063313ce56714610368576101da565b8063095ea7b3116101b8578063095ea7b31461029b57806318160ddd146102e85780631bd39674146102f057806323b872dd1461030d576101da565b8063058ecdb4146101df57806306fdde0314610214578063089208d814610291575b600080fd5b610202600480360360408110156101f557600080fd5b5080359060200135610686565b60408051918252519081900360200190f35b61021c610807565b6040805160208082528351818301528351919283929083019185019080838360005b8381101561025657818101518382015260200161023e565b50505050905090810190601f1680156102835780820380516001836020036101000a031916815260200191505b509250505060405180910390f35b6102996108bb565b005b6102d4600480360360408110156102b157600080fd5b5073ffffffffffffffffffffffffffffffffffffffff81351690602001356109b0565b604080519115158252519081900360200190f35b610202610a23565b6102026004803603602081101561030657600080fd5b5035610a29565b6102d46004803603606081101561032357600080fd5b5073ffffffffffffffffffffffffffffffffffffffff813581169160208101359091169060400135610a40565b610202610bcd565b610202610bdf565b610202610be5565b610370610c09565b6040805160ff9092168252519081900360200190f35b610202610c12565b6102d4600480360360408110156103a457600080fd5b5073ffffffffffffffffffffffffffffffffffffffff8135169060200135610c18565b6102d4600480360360208110156103dd57600080fd5b5035610cc5565b610299600480360360208110156103fa57600080fd5b503573ffffffffffffffffffffffffffffffffffffffff16610d6f565b61041f610eef565b6040805173ffffffffffffffffffffffffffffffffffffffff9092168252519081900360200190f35b610299610f0b565b6102026004803603602081101561046657600080fd5b503573ffffffffffffffffffffffffffffffffffffffff16611010565b6104a06004803603602081101561049957600080fd5b5035611045565b604080519788526020880196909652868601949094526060860192909252608085015260a084015260c0830152519081900360e00190f35b610202600480360360208110156104ee57600080fd5b5035611097565b6102026004803603602081101561050b57600080fd5b503573ffffffffffffffffffffffffffffffffffffffff166110ae565b6102026110dc565b61021c61110e565b61041f61118d565b6102d46004803603604081101561055657600080fd5b5073ffffffffffffffffffffffffffffffffffffffff81351690602001356111a9565b6102d46004803603604081101561058f57600080fd5b5073ffffffffffffffffffffffffffffffffffffffff81351690602001356112c6565b6102d4600480360360208110156105c857600080fd5b503573ffffffffffffffffffffffffffffffffffffffff166113a0565b610299600480360360e08110156105fb57600080fd5b5073ffffffffffffffffffffffffffffffffffffffff813581169160208101359091169060408101359060608101359060ff6080820135169060a08101359060c00135611515565b6102026004803603604081101561065957600080fd5b5073ffffffffffffffffffffffffffffffffffffffff8135811691602001351661181b565b61041f611853565b600a5460009073ffffffffffffffffffffffffffffffffffffffff1633146106ad57600080fd5b6000806106b86110dc565b90508461074e57600254604080514281526020810192909252805186927f917acfbe39be6509ccf7fecb66a7e42ce2be1083c2d7dd3b9b7491dabddb8da492908290030190a2837f6012dbce857565c4a40974aa5de8373a761fc429077ef0c8c8611d1e20d63fb2600061072a610bcd565b6040805192835260208301919091528051918290030190a260025492505050610801565b801561077a576107738161076d600254886118b890919063ffffffff16565b9061186f565b915061077e565b8491505b60025461078b908361192b565b60028190556fffffffffffffffffffffffffffffffff10156107bc576fffffffffffffffffffffffffffffffff6002555b6002546107ea907ffffffffffffffffffffffffffffffffffffffffffffffffffff1c2d3019e00009061186f565b600e556107f881868661199f565b50600254925050505b92915050565b60038054604080516020601f60027fffffffffffffffffffffffffffffffffffffffffffffffffffffffffffffffff6101006001881615020190951694909404938401819004810282018101909252828152606093909290918301828280156108b15780601f10610886576101008083540402835291602001916108b1565b820191906000526020600020905b81548152906001019060200180831161089457829003601f168201915b5050505050905090565b60085473ffffffffffffffffffffffffffffffffffffffff16331461094157604080517f08c379a000000000000000000000000000000000000000000000000000000000815260206004820181905260248201527f4f776e61626c653a2063616c6c6572206973206e6f7420746865206f776e6572604482015290519081900360640190fd5b60085460405160009173ffffffffffffffffffffffffffffffffffffffff16907fea8258f2d9ddb679928cf34b78cf645b7feda9acc828e4dd82d014eaae270eba908390a3600880547fffffffffffffffffffffffff0000000000000000000000000000000000000000169055565b33600081815260106020908152604080832073ffffffffffffffffffffffffffffffffffffffff8716808552908352818420869055815186815291519394909390927f8c5be1e5ebec7d5bd14f71427d1e84f3dd0314c0f7b2291e5b200ac8c7c3b925928290030190a350600192915050565b60025490565b6000610801600e54836118b890919063ffffffff16565b73ffffffffffffffffffffffffffffffffffffffff83166000908152601060209081526040808320338452909152812054610a7b9083611ae6565b73ffffffffffffffffffffffffffffffffffffffff85166000818152601060209081526040808320338085529083529281902085905580519485525191937f8c5be1e5ebec7d5bd14f71427d1e84f3dd0314c0f7b2291e5b200ac8c7c3b925929081900390910190a36000610aef83610a29565b73ffffffffffffffffffffffffffffffffffffffff86166000908152600f6020526040902054909150610b229082611ae6565b73ffffffffffffffffffffffffffffffffffffffff8087166000908152600f60205260408082209390935590861681522054610b5e908261192b565b73ffffffffffffffffffffffffffffffffffffffff8086166000818152600f602090815260409182902094909455805187815290519193928916927fddf252ad1be2c89b69c2b068fc378daa952ba7f163c4a11628f55a4df523b3ef92918290030190a3506001949350505050565b6000610bda600d54611097565b905090565b600d5481565b7f6e71edae12b1b97f4d1f60370fef10105fa2faae0126114a169c64845d6126c981565b60055460ff1690565b60075481565b33600090815260106020908152604080832073ffffffffffffffffffffffffffffffffffffffff86168452909152812054610c53908361192b565b33600081815260106020908152604080832073ffffffffffffffffffffffffffffffffffffffff89168085529083529281902085905580519485525191937f8c5be1e5ebec7d5bd14f71427d1e84f3dd0314c0f7b2291e5b200ac8c7c3b925929081900390910190a350600192915050565b60085460009073ffffffffffffffffffffffffffffffffffffffff163314610d4e57604080517f08c379a000000000000000000000000000000000000000000000000000000000815260206004820181905260248201527f4f776e61626c653a2063616c6c6572206973206e6f7420746865206f776e6572604482015290519081900360640190fd5b600d5415610d5b57600080fd5b610d6482610a29565b600d55506001919050565b60085473ffffffffffffffffffffffffffffffffffffffff163314610df557604080517f08c379a000000000000000000000000000000000000000000000000000000000815260206004820181905260248201527f4f776e61626c653a2063616c6c6572206973206e6f7420746865206f776e6572604482015290519081900360640190fd5b73ffffffffffffffffffffffffffffffffffffffff8116610e61576040517f08c379a0000000000000000000000000000000000000000000000000000000008152600401808060200182810382526026815260200180611cd56026913960400191505060405180910390fd5b60085460405173ffffffffffffffffffffffffffffffffffffffff8084169216907fea8258f2d9ddb679928cf34b78cf645b7feda9acc828e4dd82d014eaae270eba90600090a3600980547fffffffffffffffffffffffff00000000000000000000000000000000000000001673ffffffffffffffffffffffffffffffffffffffff92909216919091179055565b60085473ffffffffffffffffffffffffffffffffffffffff1690565b60095473ffffffffffffffffffffffffffffffffffffffff163314610f7b576040517f08c379a0000000000000000000000000000000000000000000000000000000008152600401808060200182810382526022815260200180611cfb6022913960400191505060405180910390fd5b60095460085460405173ffffffffffffffffffffffffffffffffffffffff92831692909116907faa151555690c956fc3ea32f106bb9f119b5237a061eaa8557cff3e51e3792c8d90600090a3600954600880547fffffffffffffffffffffffff00000000000000000000000000000000000000001673ffffffffffffffffffffffffffffffffffffffff909216919091179055565b600e5473ffffffffffffffffffffffffffffffffffffffff82166000908152600f60205260408120549091610801919061186f565b600c818154811061105557600080fd5b90600052602060002090600702016000915090508060000154908060010154908060020154908060030154908060040154908060050154908060060154905087565b6000610801600e548361186f90919063ffffffff16565b73ffffffffffffffffffffffffffffffffffffffff8116600090815260066020526040812061080190611b28565b600a54600090610bda906111059073ffffffffffffffffffffffffffffffffffffffff16611010565b60025490611ae6565b60048054604080516020601f60027fffffffffffffffffffffffffffffffffffffffffffffffffffffffffffffffff6101006001881615020190951694909404938401819004810282018101909252828152606093909290918301828280156108b15780601f10610886576101008083540402835291602001916108b1565b600b5473ffffffffffffffffffffffffffffffffffffffff1681565b33600090815260106020908152604080832073ffffffffffffffffffffffffffffffffffffffff861684529091528120548083106112175733600090815260106020908152604080832073ffffffffffffffffffffffffffffffffffffffff88168452909152812055611253565b6112218184611ae6565b33600090815260106020908152604080832073ffffffffffffffffffffffffffffffffffffffff891684529091529020555b33600081815260106020908152604080832073ffffffffffffffffffffffffffffffffffffffff89168085529083529281902054815190815290519293927f8c5be1e5ebec7d5bd14f71427d1e84f3dd0314c0f7b2291e5b200ac8c7c3b925929181900390910190a35060019392505050565b6000806112de600e54846118b890919063ffffffff16565b336000908152600f60205260409020549091506112fb9082611ae6565b336000908152600f60205260408082209290925573ffffffffffffffffffffffffffffffffffffffff861681522054611334908261192b565b73ffffffffffffffffffffffffffffffffffffffff85166000818152600f60209081526040918290209390935580518681529051919233927fddf252ad1be2c89b69c2b068fc378daa952ba7f163c4a11628f55a4df523b3ef9281900390910190a35060019392505050565b600b5460009073ffffffffffffffffffffffffffffffffffffffff1633146113c757600080fd5b73ffffffffffffffffffffffffffffffffffffffff82166113e757600080fd5b600a80547fffffffffffffffffffffffff00000000000000000000000000000000000000001673ffffffffffffffffffffffffffffffffffffffff8481169190911780835581166000908152600f602090815260408083207ffffffffffffffffffffffffffffffffffffffffffffffffffff1c2d3019e0000905593546002548551908152945193169391927fddf252ad1be2c89b69c2b068fc378daa952ba7f163c4a11628f55a4df523b3ef9281900390910190a36040805173ffffffffffffffffffffffffffffffffffffffff8416815290517f817c653428858ed536dc085c5d8273734c517b55de44b55f5c5877a75e3373a19181900360200190a15050600b80547fffffffffffffffffffffffff0000000000000000000000000000000000000000169055600190565b8342111561158457604080517f08c379a000000000000000000000000000000000000000000000000000000000815260206004820152601860248201527f5065726d69743a206578706972656420646561646c696e650000000000000000604482015290519081900360640190fd5b73ffffffffffffffffffffffffffffffffffffffff871660009081526006602052604081207f6e71edae12b1b97f4d1f60370fef10105fa2faae0126114a169c64845d6126c9908990899089906115da90611b28565b6040805160208082019790975273ffffffffffffffffffffffffffffffffffffffff95861681830152939094166060840152608083019190915260a082015260c08082018990528251808303909101815260e0820183528051908401206007547f1901000000000000000000000000000000000000000000000000000000000000610100840152610102830152610122808301829052835180840390910181526101428301808552815191860191909120600091829052610162840180865281905260ff8a166101828501526101a284018990526101c28401889052935191955092936001926101e2808201937fffffffffffffffffffffffffffffffffffffffffffffffffffffffffffffffe081019281900390910190855afa158015611706573d6000803e3d6000fd5b50506040517fffffffffffffffffffffffffffffffffffffffffffffffffffffffffffffffe0015191505073ffffffffffffffffffffffffffffffffffffffff81161580159061178157508973ffffffffffffffffffffffffffffffffffffffff168173ffffffffffffffffffffffffffffffffffffffff16145b6117d6576040517f08c379a0000000000000000000000000000000000000000000000000000000008152600401808060200182810382526021815260200180611d1d6021913960400191505060405180910390fd5b73ffffffffffffffffffffffffffffffffffffffff8a16600090815260066020526040902061180490611b2c565b61180f8a8a8a611b35565b50505050505050505050565b73ffffffffffffffffffffffffffffffffffffffff918216600090815260106020908152604080832093909416825291909152205490565b600a5473ffffffffffffffffffffffffffffffffffffffff1681565b60006118b183836040518060400160405280601a81526020017f536166654d6174683a206469766973696f6e206279207a65726f000000000000815250611ba4565b9392505050565b6000826118c757506000610801565b828202828482816118d457fe5b04146118b1576040517f08c379a0000000000000000000000000000000000000000000000000000000008152600401808060200182810382526021815260200180611d3e6021913960400191505060405180910390fd5b6000828201838110156118b157604080517f08c379a000000000000000000000000000000000000000000000000000000000815260206004820152601b60248201527f536166654d6174683a206164646974696f6e206f766572666c6f770000000000604482015290519081900360640190fd5b6000806119b88561076d86670de0b6b3a76400006118b8565b9050600c6040518060e001604052808581526020018381526020018781526020016119e16110dc565b81526020018681526020016119f4610bcd565b81524360209182015282546001818101855560009485529382902083516007909202019081558282015193810193909355604080830151600280860191909155606084015160038601556080840151600486015560a0840151600586015560c0909301516006909401939093559054825142815291820152815185927f917acfbe39be6509ccf7fecb66a7e42ce2be1083c2d7dd3b9b7491dabddb8da4928290030190a2827f6012dbce857565c4a40974aa5de8373a761fc429077ef0c8c8611d1e20d63fb282611ac3610bcd565b6040805192835260208301919091528051918290030190a2506001949350505050565b60006118b183836040518060400160405280601e81526020017f536166654d6174683a207375627472616374696f6e206f766572666c6f770000815250611c60565b5490565b80546001019055565b73ffffffffffffffffffffffffffffffffffffffff808416600081815260106020908152604080832094871680845294825291829020859055815185815291517f8c5be1e5ebec7d5bd14f71427d1e84f3dd0314c0f7b2291e5b200ac8c7c3b9259281900390910190a3505050565b60008183611c4a576040517f08c379a00000000000000000000000000000000000000000000000000000000081526004018080602001828103825283818151815260200191508051906020019080838360005b83811015611c0f578181015183820152602001611bf7565b50505050905090810190601f168015611c3c5780820380516001836020036101000a031916815260200191505b509250505060405180910390fd5b506000838581611c5657fe5b0495945050505050565b60008184841115611ccc576040517f08c379a0000000000000000000000000000000000000000000000000000000008152602060048201818152835160248401528351909283926044909101919085019080838360008315611c0f578181015183820152602001611bf7565b50505090039056fe4f776e61626c653a206e6577206f776e657220697320746865207a65726f20616464726573734f776e61626c653a206d757374206265206e6577206f776e657220746f2070756c6c5a65726f537761705065726d69743a20496e76616c6964207369676e6174757265536166654d6174683a206d756c7469706c69636174696f6e206f766572666c6f77a2646970667358221220278b2187f80ce54f403c331304d9c4d31f09f7f988c85e8807fb37d9356dd4ba64736f6c63430007050033",
  "devdoc": {
    "kind": "dev",
    "methods": {
      "decimals()": {
        "details": "Returns the number of decimals used to get its user representation. For example, if `decimals` equals `2`, a balance of `505` tokens should be displayed to a user as `5,05` (`505 / 10 ** 2`). Tokens usually opt for a value of 18, imitating the relationship between Ether and Wei. This is the value {ERC20} uses, unless {_setupDecimals} is called. NOTE: This information is only used for _display_ purposes: it in no way affects any of the arithmetic of the contract, including {IERC20-balanceOf} and {IERC20-transfer}."
      },
      "decreaseAllowance(address,uint256)": {
        "details": "Atomically decreases the allowance granted to `spender` by the caller. This is an alternative to {approve} that can be used as a mitigation for problems described in {IERC20-approve}. Emits an {Approval} event indicating the updated allowance. Requirements: - `spender` cannot be the zero address. - `spender` must have allowance for the caller of at least `subtractedValue`."
      },
      "increaseAllowance(address,uint256)": {
        "details": "Atomically increases the allowance granted to `spender` by the caller. This is an alternative to {approve} that can be used as a mitigation for problems described in {IERC20-approve}. Emits an {Approval} event indicating the updated allowance. Requirements: - `spender` cannot be the zero address."
      },
      "name()": {
        "details": "Returns the name of the token."
      },
      "nonces(address)": {
        "details": "See {IERC2612Permit-nonces}."
      },
      "permit(address,address,uint256,uint256,uint8,bytes32,bytes32)": {
        "details": "See {IERC2612Permit-permit}."
      },
      "rebase(uint256,uint256)": {
        "params": {
          "profit_": "uint256"
        },
        "returns": {
          "_0": "uint256"
        }
      },
      "symbol()": {
        "details": "Returns the symbol of the token, usually a shorter version of the name."
      },
      "totalSupply()": {
        "details": "See {IERC20-totalSupply}."
      }
    },
    "version": 1
  },
  "userdoc": {
    "kind": "user",
    "methods": {
      "rebase(uint256,uint256)": {
        "notice": "increases sMOON supply to increase staking balances relative to profit_"
      }
    },
    "version": 1
  },
  "storageLayout": {
    "storage": [
      {
        "astId": 907,
        "contract": "contracts/sMOON.sol:sMoon",
        "label": "_balances",
        "offset": 0,
        "slot": "0",
        "type": "t_mapping(t_address,t_uint256)"
      },
      {
        "astId": 913,
        "contract": "contracts/sMOON.sol:sMoon",
        "label": "_allowances",
        "offset": 0,
        "slot": "1",
        "type": "t_mapping(t_address,t_mapping(t_address,t_uint256))"
      },
      {
        "astId": 915,
        "contract": "contracts/sMOON.sol:sMoon",
        "label": "_totalSupply",
        "offset": 0,
        "slot": "2",
        "type": "t_uint256"
      },
      {
        "astId": 917,
        "contract": "contracts/sMOON.sol:sMoon",
        "label": "_name",
        "offset": 0,
        "slot": "3",
        "type": "t_string_storage"
      },
      {
        "astId": 919,
        "contract": "contracts/sMOON.sol:sMoon",
        "label": "_symbol",
        "offset": 0,
        "slot": "4",
        "type": "t_string_storage"
      },
      {
        "astId": 921,
        "contract": "contracts/sMOON.sol:sMoon",
        "label": "_decimals",
        "offset": 0,
        "slot": "5",
        "type": "t_uint8"
      },
      {
        "astId": 1468,
        "contract": "contracts/sMOON.sol:sMoon",
        "label": "_nonces",
        "offset": 0,
        "slot": "6",
        "type": "t_mapping(t_address,t_struct(Counter)1390_storage)"
      },
      {
        "astId": 1473,
        "contract": "contracts/sMOON.sol:sMoon",
        "label": "DOMAIN_SEPARATOR",
        "offset": 0,
        "slot": "7",
        "type": "t_bytes32"
      },
      {
        "astId": 1643,
        "contract": "contracts/sMOON.sol:sMoon",
        "label": "_owner",
        "offset": 0,
        "slot": "8",
        "type": "t_address"
      },
      {
        "astId": 1645,
        "contract": "contracts/sMOON.sol:sMoon",
        "label": "_newOwner",
        "offset": 0,
        "slot": "9",
        "type": "t_address"
      },
      {
        "astId": 1788,
        "contract": "contracts/sMOON.sol:sMoon",
        "label": "stakingContract",
        "offset": 0,
        "slot": "10",
        "type": "t_address"
      },
      {
        "astId": 1790,
        "contract": "contracts/sMOON.sol:sMoon",
        "label": "initializer",
        "offset": 0,
        "slot": "11",
        "type": "t_address"
      },
      {
        "astId": 1828,
        "contract": "contracts/sMOON.sol:sMoon",
        "label": "rebases",
        "offset": 0,
        "slot": "12",
        "type": "t_array(t_struct(Rebase)1825_storage)dyn_storage"
      },
      {
        "astId": 1830,
        "contract": "contracts/sMOON.sol:sMoon",
        "label": "INDEX",
        "offset": 0,
        "slot": "13",
        "type": "t_uint256"
      },
      {
        "astId": 1861,
        "contract": "contracts/sMOON.sol:sMoon",
        "label": "_gonsPerFragment",
        "offset": 0,
        "slot": "14",
        "type": "t_uint256"
      },
      {
        "astId": 1865,
        "contract": "contracts/sMOON.sol:sMoon",
        "label": "_gonBalances",
        "offset": 0,
        "slot": "15",
        "type": "t_mapping(t_address,t_uint256)"
      },
      {
        "astId": 1871,
        "contract": "contracts/sMOON.sol:sMoon",
        "label": "_allowedValue",
        "offset": 0,
        "slot": "16",
        "type": "t_mapping(t_address,t_mapping(t_address,t_uint256))"
      }
    ],
    "types": {
      "t_address": {
        "encoding": "inplace",
        "label": "address",
        "numberOfBytes": "20"
      },
      "t_array(t_struct(Rebase)1825_storage)dyn_storage": {
        "base": "t_struct(Rebase)1825_storage",
        "encoding": "dynamic_array",
        "label": "struct sMoon.Rebase[]",
        "numberOfBytes": "32"
      },
      "t_bytes32": {
        "encoding": "inplace",
        "label": "bytes32",
        "numberOfBytes": "32"
      },
      "t_mapping(t_address,t_mapping(t_address,t_uint256))": {
        "encoding": "mapping",
        "key": "t_address",
        "label": "mapping(address => mapping(address => uint256))",
        "numberOfBytes": "32",
        "value": "t_mapping(t_address,t_uint256)"
      },
      "t_mapping(t_address,t_struct(Counter)1390_storage)": {
        "encoding": "mapping",
        "key": "t_address",
        "label": "mapping(address => struct Counters.Counter)",
        "numberOfBytes": "32",
        "value": "t_struct(Counter)1390_storage"
      },
      "t_mapping(t_address,t_uint256)": {
        "encoding": "mapping",
        "key": "t_address",
        "label": "mapping(address => uint256)",
        "numberOfBytes": "32",
        "value": "t_uint256"
      },
      "t_string_storage": {
        "encoding": "bytes",
        "label": "string",
        "numberOfBytes": "32"
      },
      "t_struct(Counter)1390_storage": {
        "encoding": "inplace",
        "label": "struct Counters.Counter",
        "members": [
          {
            "astId": 1389,
            "contract": "contracts/sMOON.sol:sMoon",
            "label": "_value",
            "offset": 0,
            "slot": "0",
            "type": "t_uint256"
          }
        ],
        "numberOfBytes": "32"
      },
      "t_struct(Rebase)1825_storage": {
        "encoding": "inplace",
        "label": "struct sMoon.Rebase",
        "members": [
          {
            "astId": 1812,
            "contract": "contracts/sMOON.sol:sMoon",
            "label": "epoch",
            "offset": 0,
            "slot": "0",
            "type": "t_uint256"
          },
          {
            "astId": 1814,
            "contract": "contracts/sMOON.sol:sMoon",
            "label": "rebase",
            "offset": 0,
            "slot": "1",
            "type": "t_uint256"
          },
          {
            "astId": 1816,
            "contract": "contracts/sMOON.sol:sMoon",
            "label": "totalStakedBefore",
            "offset": 0,
            "slot": "2",
            "type": "t_uint256"
          },
          {
            "astId": 1818,
            "contract": "contracts/sMOON.sol:sMoon",
            "label": "totalStakedAfter",
            "offset": 0,
            "slot": "3",
            "type": "t_uint256"
          },
          {
            "astId": 1820,
            "contract": "contracts/sMOON.sol:sMoon",
            "label": "amountRebased",
            "offset": 0,
            "slot": "4",
            "type": "t_uint256"
          },
          {
            "astId": 1822,
            "contract": "contracts/sMOON.sol:sMoon",
            "label": "index",
            "offset": 0,
            "slot": "5",
            "type": "t_uint256"
          },
          {
            "astId": 1824,
            "contract": "contracts/sMOON.sol:sMoon",
            "label": "blockNumberOccured",
            "offset": 0,
            "slot": "6",
            "type": "t_uint256"
          }
        ],
        "numberOfBytes": "224"
      },
      "t_uint256": {
        "encoding": "inplace",
        "label": "uint256",
        "numberOfBytes": "32"
      },
      "t_uint8": {
        "encoding": "inplace",
        "label": "uint8",
        "numberOfBytes": "1"
      }
    }
  }
}